:10C00000314000041542200175F335D0085A3F40F5
:10C0100000000F930724824520012F839F4F54D1A6
:10C020000002F9233F4010000F93062482452001AF
:10C030001F83CF430002FA23B01244C43F4080253F
:10C04000B012E6C73F4038C5B012DAC83F4062C5FB
:10C05000B012B4C47E4003007F403000B0126ACDFD
:10C060003F90FEFF04203F406AC5B012DAC87E4010
:10C0700003007F402A00B0126ACD3F90FDFF0420EC
:10C080003F4084C5B012DAC87E4003007F401100F3
:10C09000B0126ACD3F90FDFF04203F409DC5B01215
:10C0A000DAC87E4003007F401200B0126ACD3F9094
:10C0B000FDFF04203F40C1C5B012DAC80B436E42F9
:10C0C0004F4B7F502000B0126ACD3F9306200B12D9
:10C0D0003012E5C5B012C0C921521B533B92EF2369
:10C0E0007E4007007F401400B0126ACD0F1230125C
:10C0F00002C6B012C0C921527E4007007F40150021
:10C10000B0126ACD0F12301218C6B012C0C9215237
:10C110007E4006007F401400B0126ACD0F1230122C
:10C120002EC6B012C0C921527E4006007F401500C5
:10C13000B0126ACD0F12301244C6B012C0C92152DB
:10C140007E4003007F401000B0126ACD7E400300A5
:10C150007F401600B0126ACD7E4003007F4025006C
:10C16000B0126ACD3F405AC6B012B4C47F4010002E
:10C17000B01234CF7F401600B01234CF7F4025007C
:10C18000B01234CF3F4070C6B012B4C47F4010002C
:10C19000B012CCCF0F12301283C6B012C0C92152D8
:10C1A0007F401600B012CCCF0F12301290C6B012E2
:10C1B000C0C921527F402500B012CCCF0F123012DF
:10C1C0009DC6B012C0C921527F401000B012E8CE07
:10C1D0007F401600B012E8CE7F402500B012E8CEB6
:10C1E0003F40AAC6B012B4C47F401000B012CCCFFA
:10C1F0000F12301283C6B012C0C921527F40160000
:10C20000B012CCCF0F12301290C6B012C0C921525A
:10C210007F402500B012CCCF0F1230129DC6B01255
:10C22000C0C921527F401000B01280CF7F4016005D
:10C23000B01280CF7F402500B01280CF3F40BFC6F4
:10C24000B012B4C47F401000B012CCCF0F12301225
:10C2500083C6B012C0C921527F401600B012CCCFA5
:10C260000F12301290C6B012C0C921527F40250073
:10C27000B012CCCF0F1230129DC6B012C0C92152DD
:10C280007F401000B01280CF7F401600B01280CFE8
:10C290007F402500B01280CF3F40BFC6B012B4C46B
:10C2A0007F401000B012CCCF0F12301283C6B012F4
:10C2B000C0C921527F401600B012CCCF0F123012ED
:10C2C00090C6B012C0C921527F402500B012CCCF19
:10C2D0000F1230129DC6B012C0C921524E437F408A
:10C2E0001300B0126ACD3F40D5C6B012B4C43F406F
:10C2F000E6C6B012DAC8013C03437F401300B01217
:10C30000CCCF0F93F9233F400BC7B012DAC86E436E
:10C310007F402300B0126ACD3F4011C7B012B4C4B1
:10C320003F4026C7B012DAC8013C03437F402300D8
:10C33000B012CCCF0F93F9273F400BC7B012DAC829
:10C340005E437F402400B0126ACD3F404BC7B0121D
:10C35000B4C43F405EC7B012DAC8013C03437F401B
:10C360002400B012CCCF094F0F93F8233F400BC7E6
:10C37000B012DAC87F401000B01234CF7F401600F0
:10C38000B012E8CE7F402500B012E8CE6E427F406A
:10C390001500B0126ACD0F12301283C7B012C0C997
:10C3A00021523F40A1C7B012B4C47F401500B01263
:10C3B0002ED00A4F0F123012B0C7B012C0C921528E
:10C3C00038400500B01212C57F401000B01280CF77
:10C3D0007F401600B01280CF0F491FF319530F93FF
:10C3E00004207F502500B01280CF7F401300B01290
:10C3F000CCCF0F930C207F501600B01280CF013CA1
:10C4000003437F401300B012CCCF0F93F9277F4036
:10C410001500B0122ED00B4F0F8A089F04380F4A18
:10C420000F8B089FCF370B120B123012C7C7B012F9
:10C43000C0C9315006000A4BC53F32D0F000FD3F65
:10C44000304052D1B240805A2001D242FF105700F2
:10C45000D242FE105600304152454744554D5028B7
:10C460002573293A2050314449523D25783B2050CC
:10C47000324449523D25783B2050314F55543D259B
:10C48000783B2050324F55543D25783B2050315257
:10C49000454E3D25783B20503252454E3D25783B58
:10C4A000205031494E3D25782C205032494E3D25B3
:10C4B000780A0D000B120A120912081258422800BD
:10C4C000594220005A422F005B4227005C4229005B
:10C4D0005D4221005E422A0048480812494909127B
:10C4E0004A4A0A124B4B0B124C4C0C124D4D0D127A
:10C4F0004E4E0E125E4222000E120F12301258C41F
:10C50000B012C0C931501400384139413A413B4161
:10C5100030412182B140983A000081430200B1537A
:10C520000000B16302002E411F4102000E93F72369
:10C530000F93F523215230412A2A20524F434B4575
:10C54000547543202D206C6962726F636B65746350
:10C550006F72652050494E2074657374202A2A0A30
:10C560000D00696E697469616C0030783330206940
:10C570007320616E20696E76616C696420706F72E1
:10C58000740A0D003078324120697320616E206991
:10C590006E76616C69642070696E0A0D00307831C6
:10C5A0003120697320616E20696E76616C69642048
:10C5B000287265736572766564292070696E0A0D4C
:10C5C000003078313220697320616E20696E7661A7
:10C5D0006C696420287265736572766564292070C1
:10C5E000696E0A0D00307832256920646F6573200A
:10C5F0006E6F7420737570706F7274204144430ABB
:10C600000D00536574205541525454582070312EFA
:10C61000343A2025780A0D00536574205541525450
:10C6200054582070312E353A2025780A0D00536574
:10C6300074205541525452582070312E343A2025DE
:10C64000780A0D0053657420554152545258207099
:10C65000312E353A2025780A0D0070312E302B709E
:10C66000312E362B70322E35206F75747075740034
:10C6700070312E302B70312E362B70322E352073C8
:10C6800065740050312E302069732025780A0D0022
:10C6900050312E362069732025780A0D0050322E35
:10C6A000352069732025780A0D0070312E302B70EB
:10C6B000312E362B70322E3520636C65617200701E
:10C6C000312E302B70312E362B70322E3520746F78
:10C6D00067676C650070312E3320696E7075742049
:10C6E000666C6F6174005072657373206275747448
:10C6F0006F6E206F6E2050312E3320746F20636F69
:10C700006E74696E7565202E2E2E00204F4B0A0D1B
:10C710000070322E3320696E7075742070756C6CE9
:10C720002D646F776E005072657373206275747438
:10C730006F6E206F6E2050322E3320746F20636F27
:10C740006E74696E7565202E2E2E0070322E342088
:10C75000696E7075742070756C6C2D7570005072F8
:10C7600065737320627574746F6E206F6E20503223
:10C770002E3420746F20636F6E74696E7565202E81
:10C780002E2E00736574757020312E3520666F7201
:10C7900020616E616C6F6720696E3A2025780A0D02
:10C7A0000070312E3520616E616C6F6720696E00FC
:10C7B000416E616C6F6720726561642070312E3547
:10C7C0003A2025780A0D00416E616C6F6720726512
:10C7D00061642061742070312E353A20257820283C
:10C7E0002569290A0D000B120A12091208120712F4
:10C7F000F2D006002600F2D006004100F2D080FF01
:10C80000610007433C4040423D400F000A4F0B4748
:10C81000B012C2D0C24C6200C2476300E24364005F
:10C82000F2F0FEFF61003741384139413A413B4166
:10C830003041C24F670030415E4203002EF3FC27B7
:10C84000C24F670030415F42660030415F420300E3
:10C850001FF3FC275F42660030410B120A120912D7
:10C86000081207120A4E0B4F074D0E9304200B932C
:10C870000220223C27521B970200FC2B1B97020030
:10C8800002202A97F72B28471947020027527F409A
:10C890003000033C5F530A880B790B990428099BED
:10C8A000F92B0A98F72FB0122ACB18F309F3089343
:10C8B000072009930520E73F7F403000B0122ACBC4
:10C8C0003741384139413A413B4130413FF00F0057
:10C8D0005F4F1ACBB0122ACB30410B120B4F023CE8
:10C8E000B0122ACB6F4B1B534F93FA233B4130417D
:10C8F0000B120A120912081207123150E0FF0F93AF
:10C900000724084138501E0039400F000743183CE7
:10C910007F403000B0122ACB233C0C4F3A400A0033
:10C92000B0128CD03E503000884E0000395328831E
:10C93000099308240C4F3A400A00B0128CD00F4CD7
:10C94000079FEB3B0A491A530B4A0B5B0B51053C03
:10C950006F4BB0122ACB1A532B533A901000F82386
:10C96000315020003741384139413A413B41304153
:10C970000B120A1209120812084F094E1B430D4EE2
:10C980003D530D9303240B5B1D83FD230A43113C90
:10C990000F4A0D4B0F9303240D111F83FD230DF838
:10C9A00003247F403100023C7F403000B0122ACB8C
:10C9B0001A530A99ED3B384139413A413B413041E4
:10C9C0000B120A12091208120712061219410E0060
:10C9D0000A413A50100077406E00784069007F3C71
:10C9E00019537F90250079206F4919537F906E006D
:10C9F0003C24479F0F387F9069002224489F0638C7
:10CA00004F9370247F9063006820133C7F906C00EC
:10CA100064202B3C7F90750013247F9078003F2486
:10CA20007F9073005A200B4A2B532F4AB012DAC85A
:10CA3000053C0B4A2B536F4AB0122ACB0A4B4F3C92
:10CA40000B4A2B532A4A7F90690008200A93063428
:10CA50003AE31A537F50C4FFB0122ACB3D4006CBB5
:10CA60000E4A0F43B0125AC8E93F064A26521B4AE3
:10CA700002002A4A7F906C000A200B9308343AE3A4
:10CA80003BE31A530B637F50C1FFB0122ACB3D40EA
:10CA9000F2CA0E4A0F4BB0125AC80A46203C0B4A43
:10CAA0002B532A4A0E4A8E108E110E110E110E11A2
:10CAB0000F4E0F11B012CCC80F4A8F108F11B01249
:10CAC000CCC80E4A0E110E110E110F4E0F11B012DE
:10CAD000CCC80F4AB012CCC8B13FB0122ACB6F49B4
:10CAE0004F937E2336413741384139413A413B41EA
:10CAF000304100CA9A3B00E1F5058096980040421B
:10CB00000F00A086010010270000E8030000640069
:10CB100000000A00000001000000303132333435DB
:10CB200036373839414243444546B01238C830415F
:10CB3000B0124CC8304112C34F104F114F114F115A
:10CB40004F4F0E4F3E532E9302283F40FEFF304181
:10CB50004E4F7E50EFFF6E930C280E4F3EF00F00AD
:10CB60003E920A341F430E9303240F5F1E83FD235E
:10CB700030413F40FDFF30413F40FDFF30414D4FD0
:10CB800012C34D104D114D114D114D4D3D530D5DC5
:10CB90000D5D0D5D3FF00F000D5F3D901100022C0B
:10CBA000CD4E000230414E4F12C34E104E114E1169
:10CBB0004E114E4E3E530E5E0E5E0E5E3FF00F0067
:10CBC0000E5F3E901100032C5F4E000230414F4338
:10CBD00030414F9310240D4F3DF00F001D5312C3F1
:10CBE0004F104F114F114F114F4F3F530F5F0F5FBA
:10CBF0000F5F0D5F013C0D431D533F400F00113C83
:10CC0000CD9E00020D200F4D0F110F110F115F531C
:10CC10004F5F4F5F4F5F4F5F3DF007004F5D30410B
:10CC20001D530F9DED2F4F4330417F9010004A243C
:10CC30007F9013008A247F90140044247F90150075
:10CC40001E247F9016001B247F90170018247F90CD
:10CC5000200015247F90210012247F9022000F24B1
:10CC60007F9023000C247F90240009247F902500CE
:10CC700006247F90260003247F90270068207F9061
:10CC8000150020241E437F9016001D247F9017005E
:10CC90001A247F90200017247F90210014247F9075
:10CCA000220011247F9023000E247F9024000B2467
:10CCB0007F90250008247F90260005247F90270080
:10CCC0000620013C1E432ED37F90100027247F9026
:10CCD000130024247F90140021247F9015001E242B
:10CCE0007F9016001B247F90170018247F9020004F
:10CCF00015247F90210012247F9022000F247F9022
:10CD000023000C247F90240009247F902500062412
:10CD10007F90260003247F9027000B203ED07400D4
:10CD20007F9010000F247F9013000C247F9014003C
:10CD300009247F90150006247F90160003247F901D
:10CD4000170001203ED20F4E30411E43E73F0E43F5
:10CD50009A3F0B120B4EB0122ACC0E4F0EFB1F4304
:10CD60000E9B01240F433B4130410B120A12091262
:10CD70000812494F484EB01236CB0B4F0F93AE38C6
:10CD80004F49B01250CB0A4F0F93A3384F49B012FE
:10CD9000A6CB4F98A0247892A02C4F480F5F104F3D
:10CDA000A2CDB2CDD6CDFECD36CE6ACE88CE98CE2F
:10CDB000ACCE1E434F49B01252CD0F938E241B931D
:10CDC00004207AE3C2FA2200433C2B937D207AE3CD
:10CDD000C2FA2A00473C2E434F49B01252CD0F935E
:10CDE0007C241B930520C2CA2200C2DA2100153C14
:10CDF0002B936A20C2CA2A00C2DA2900193C2E43AA
:10CE00004F49B01252CD0F9368241B9309204F4A0B
:10CE10007FE3C2FF2200C2FF2100C2DA2700543C98
:10CE20002B9352204F4A7FE3C2FF2A00C2FF290002
:10CE3000C2DA2F00493C2E424F49B01252CD0F9317
:10CE40004C241B930820C2DA22007AE3C2FA2100A4
:10CE5000C2FA2700393C2B933720C2DA2A007AE342
:10CE6000C2FA2900C2FA2F002F3C3E424F49B012AD
:10CE700052CD0F9332247AE3C2FA2200C2FA27007D
:10CE8000B2403010B001203C3E4010004F49B0127B
:10CE900052CD0F931920213C3E4020004F49B01243
:10CEA00052CD0F931A247E400600093C3E404000BC
:10CEB0004F49B01252CD0F9310247E4007004F43CC
:10CEC000B012D2CB4F9309204E484F49B0127ECBBF
:10CED000023C0B4F033C0B43013C3B430F4B38419F
:10CEE00039413A413B4130410B120A124A4FB012CC
:10CEF000A6CB7F90030015204F4AB01236CB0B4FC4
:10CF00000F9314384F4AB01250CB0F930C381B9329
:10CF10000320C2CF2100093C2B930720C2CF290058
:10CF2000043C3B43033C0B4F013C0B430F4B3A414A
:10CF30003B4130410B120A124A4FB012A6CB7F90F0
:10CF4000030015204F4AB01236CB0B4F0F93143805
:10CF50004F4AB01250CB0F930C381B930320C2DF03
:10CF60002100093C2B930720C2DF2900043C3B43EE
:10CF7000033C0B4F013C0B430F4B3A413B413041CB
:10CF80000B120A124A4FB012A6CB7F900300152055
:10CF90004F4AB01236CB0B4F0F9314384F4AB01292
:10CFA00050CB0F930C381B930320C2EF2100093C98
:10CFB0002B930720C2EF2900043C3B43033C0B4F5B
:10CFC000013C0B430F4B3A413B4130410B120A12DB
:10CFD0004A4FB012A6CB7F90030009244F93072439
:10CFE0005F9305246F9303247F90050019204F4A17
:10CFF000B01236CB0B4F0F9316384F4AB01250CBAE
:10D000000F9310381B9304205E4220000EFF043C57
:10D010005E4228000EFF1B430E9F05240B43033C7A
:10D020003B43013C0B4F0F4B3A413B4130410B120C
:10D030004B4FB012A6CB7F50FDFF6F931B2C4F4B75
:10D04000B01236CB0F9317384F4BB01250CB0F9313
:10D0500012384F4B8F100F5F0F5F0F5F0F5F824FC4
:10D06000B201B2D00300B00192B3B201FD231F425E
:10D07000B401013C3F433B413041B012A6CB7F900D
:10D08000030002283F4330410F4330410D433CB081
:10D09000008003283CE31C532DD23AB000800328C3
:10D0A0003AE31A533DD2B0120CD10D102DB2042820
:10D0B0003EE31E533CE31C533DB202283CE31C53A9
:10D0C000304108433DB0008005243DE33CE31C5360
:10D0D0000D6328D23BB0008005243BE33AE31A53AA
:10D0E0000B6338D2B01228D1081028B208243EE3CE
:10D0F0003FE31E530F633CE33DE31C530D6338B223
:10D1000004243CE33DE31C530D6330410EEE3B40F1
:10D110001100053C0D100E6E0E9A01280E8A0C6C43
:10D120000D6D1B83F72330410FEF0EEE39402100C8
:10D130000A3C08100E6E0F6F0F9B052802200E9AF6
:10D1400002280E8A0F7B0C6C0D6D08681983F12381
:04D150003041001357
:10FFE00040C440C440C440C440C440C440C440C4F1
:10FFF00040C440C440C440C440C440C440C400C025
:040000030000C00039
:00000001FF
