:10C00000314000041542200175F335D0085A3F40F5
:10C0100032000F930724824520012F839F4F52CB7C
:10C020000002F9233F40CC000F93062482452001F3
:10C030001F83CF433202FA23B01250C0B01292C015
:10C04000B01210C3FD3F32D0F000FD3F304050CB66
:10C05000B240805A2001D242FF105700D242FE1057
:10C06000560030410B123B405602FB402B000000B3
:10C07000FB4005000100DB430200CB4F03000F4BE8
:10C08000B01244C4CB4F13000F4BB01282C43B41DB
:10C0900030410B123F408025B012D0C33B404000DE
:10C0A0000D4B3E407E023F406A02B0126EC30D4B04
:10C0B0003E40BE023F407402B0126EC3D2D30100B4
:10C0C00032D23B4130410B124B4F013C03433F40C6
:10C0D0007402B01250C30F93F9234E4B3F407402C9
:10C0E000B01284C3E2D301003B413041013C034321
:10C0F0003F406A02B01260C30F93F9233F406A02C7
:10C10000B012AAC330410F120E120D120C123F4092
:10C110006A02B01250C30F9306205E4266003F4091
:10C120006A02B01284C33C413D413E413F4100138D
:10C130000F120E120D120C123F407402B01260C3A7
:10C140000F9307203F407402B012AAC3B0121CC460
:10C15000033CF2F0FDFF01003C413D413E413F41C7
:10C1600000135F43B01264C00F4330414F43B0121D
:10C1700064C00F4330410B123B405602FB402B0082
:10C180000000FB4007000100EB430200F240CAFF41
:10C190005902F2435A02F240EEFF5B020F4BB0121B
:10C1A00044C4CB4F13000F4BB01282C40F433B412A
:10C1B00030414F43B01264C00F4330410B120D4E5B
:10C1C0006F9306246F42B01264C03B40FCFF0E3CEC
:10C1D0005E4E01006F4DB012BAC70B4F0F93032490
:10C1E0007F400500013C5F43B01264C00F4B3B41F0
:10C1F00030410B120A120A4E6F9302246F42623CC6
:10C200007F4005005F9E01005D285F4E01000F5FCB
:10C21000104F14C220C228C230C244C26CC2B8C27D
:10C220006F4EB01238C9073C6F4EB01284C9033C40
:10C230006F4EB012D0C90B4F0F931E205F43B01248
:10C2400064C0443C6F4EB0121CCA0B4F0F9314389D
:10C25000F2402B005602F24006005702F240030063
:10C260005802E24A5902C24F5A021B3C6F4EB012AA
:10C270007ECA0B4F0F9303347F400500E03FF2402E
:10C280002B005602F24007005702E2425802E24AEF
:10C290005902C24F5A023FF0000F8F108F11C24F48
:10C2A0005B023F405602B01244C4C24F69023F4095
:10C2B0005602B01282C40A3C7F400500B01264C02E
:10C2C0000B43043CB01264C03B40FCFF0F4B3A41AF
:10C2D0003B4130414F43B01264C00F4330414F43A4
:10C2E000B01264C00F4330414F43B01264C00F43DB
:10C2F00030414F43B01264C00F4330414F43B0123E
:10C3000064C00F4330414F43B01264C00F4330410B
:10C310007E4024003F404202B012D8C40F930E204A
:10C320003E4042023F400002B01246C53F90FDFF32
:10C3300008207F500600B01264C030416F43B01235
:10C3400064C030411E4F06001E8F08000F4E304162
:10C350001E439F9F0800060001240E430F4E3041EC
:10C360001E438F93080001240E430F4E30418F4E21
:10C3700000008F4E02008F4E04008F4D06008F4349
:10C38000080030419F5308001D4F06003D532D5FAC
:10C390001D9F0400022CAF4F04001D4F0400CD4E22
:10C3A00000001D538F4D04003041BF5308001E4F45
:10C3B00006003E532E5F1E9F0200022CAF4F02006C
:10C3C0001D4F02006E4D1D538F4D02004F4E3041E8
:10C3D0000B120A12091208120712F2D006002600E8
:10C3E000F2D006004100F2D080FF610007433C40DC
:10C3F00040423D400F000A4F0B47B012DCCAC24C0E
:10C400006200C2476300E2436400F2F0FEFF610095
:10C410003741384139413A413B413041C24F6700D1
:10C4200030415E4203002EF3FC27C24F67003041CB
:10C430005F42660030415F4203001FF3FC275F420A
:10C44000660030410B125D4F01005E4F02004E5DF1
:10C450004C432D82043C0B5F5E5B03005C534B4CF2
:10C460000B9DF93B4F4E3B4130410B120B4FB0122D
:10C4700044C41E435F9B130001240E430F4E3B41F7
:10C4800030410B120A120B4F5F4F01003F90150015
:10C490001F346F4BB012C6C05F4B0100B012C6C054
:10C4A0005F4B0200B012C6C04A43063C0E5B5F4EB3
:10C4B0000300B012C6C05A534E4A5F4B01002F8290
:10C4C0000E9FF43B5F4B1300B012C6C00F43013CFC
:10C4D0003F433A413B4130410B120A1209120B4FC4
:10C4E0004A4EB012ECC04F9AFC23CB4A0000B01267
:10C4F000ECC0CB4F01004F4F3F9015001D34B012E0
:10C50000ECC0CB4F02004A43063CB012ECC0095BC2
:10C51000C94F03005A53494A5F4B01002F82099FBC
:10C52000F43BB012ECC0CB4F13000F4BB0126AC4F7
:10C530000F9304202F83033C3F43013C0F433941B9
:10C540003A413B4130410B120A120C4E6B4F0E4FD9
:10C550002E530D43113C6A4E2E521D535A9C02001D
:10C560000B200D5D0D5D0D5F0E4C3E5003005F4CCA
:10C5700001006F82AD12043C0D9BED3B3F40FDFF7F
:10C580003A413B41304112C34F104F114F114F11EF
:10C590004F4F0E4F3E532E9302283F40FEFF304137
:10C5A0004E4F7E50EFFF6E930C280E4F3EF00F0063
:10C5B0003E920A341F430E9303240F5F1E83FD2314
:10C5C00030413F40FDFF30413F40FDFF30414D4F86
:10C5D00012C34D104D114D114D114D4D3D530D5D7B
:10C5E0000D5D0D5D3FF00F000D5F3D901100022CC1
:10C5F000CD4E320230414E4F12C34E104E114E11ED
:10C600004E114E4E3E530E5E0E5E0E5E3FF00F001C
:10C610000E5F3E901100032C5F4E320230414F43BB
:10C6200030414F9310240D4F3DF00F001D5312C3A6
:10C630004F104F114F114F114F4F3F530F5F0F5F6F
:10C640000F5F0D5F013C0D431D533F400F00113C38
:10C65000CD9E32020D200F4D0F110F110F115F53A0
:10C660004F5F4F5F4F5F4F5F3DF007004F5D3041C1
:10C670001D530F9DED2F4F4330417F9010004A24F2
:10C680007F9013008A247F90140044247F9015002B
:10C690001E247F9016001B247F90170018247F9083
:10C6A000200015247F90210012247F9022000F2467
:10C6B0007F9023000C247F90240009247F90250084
:10C6C00006247F90260003247F90270068207F9017
:10C6D000150020241E437F9016001D247F90170014
:10C6E0001A247F90200017247F90210014247F902B
:10C6F000220011247F9023000E247F9024000B241D
:10C700007F90250008247F90260005247F90270035
:10C710000620013C1E432ED37F90100027247F90DB
:10C72000130024247F90140021247F9015001E24E0
:10C730007F9016001B247F90170018247F90200004
:10C7400015247F90210012247F9022000F247F90D7
:10C7500023000C247F90240009247F9025000624C8
:10C760007F90260003247F9027000B203ED074008A
:10C770007F9010000F247F9013000C247F901400F2
:10C7800009247F90150006247F90160003247F90D3
:10C79000170001203ED20F4E30411E43E73F0E43AB
:10C7A0009A3F0B120B4EB0127AC60E4F0EFB1F4370
:10C7B0000E9B01240F433B4130410B120A12091218
:10C7C0000812494F484EB01286C50B4F0F93AE3832
:10C7D0004F49B012A0C50A4F0F93A3384F49B0126A
:10C7E000F6C54F98A0247892A02C4F480F5F104FA9
:10C7F000F2C702C826C84EC886C8BAC8D8C8E8C892
:10C80000FCC81E434F49B012A2C70F938E241B933E
:10C8100004207AE3C2FA2200433C2B937D207AE382
:10C82000C2FA2A00473C2E434F49B012A2C70F93C9
:10C830007C241B930520C2CA2200C2DA2100153CC9
:10C840002B936A20C2CA2A00C2DA2900193C2E435F
:10C850004F49B012A2C70F9368241B9309204F4A77
:10C860007FE3C2FF2200C2FF2100C2DA2700543C4E
:10C870002B9352204F4A7FE3C2FF2A00C2FF2900B8
:10C88000C2DA2F00493C2E424F49B012A2C70F9383
:10C890004C241B930820C2DA22007AE3C2FA21005A
:10C8A000C2FA2700393C2B933720C2DA2A007AE3F8
:10C8B000C2FA2900C2FA2F002F3C3E424F49B01263
:10C8C000A2C70F9332247AE3C2FA2200C2FA2700E9
:10C8D000B2403010B001203C3E4010004F49B01231
:10C8E000A2C70F931920213C3E4020004F49B012AF
:10C8F000A2C70F931A247E400600093C3E40400028
:10C900004F49B012A2C70F9310247E4007004F4337
:10C91000B01222C64F9309204E484F49B012CEC5DF
:10C92000023C0B4F033C0B43013C3B430F4B384154
:10C9300039413A413B4130410B120A124A4FB01281
:10C94000F6C57F90030015204F4AB01286C50B4FE5
:10C950000F9314384F4AB012A0C50F930C381B9395
:10C960000320C2CF2100093C2B930720C2CF29000E
:10C97000043C3B43033C0B4F013C0B430F4B3A4100
:10C980003B4130410B120A124A4FB012F6C57F905C
:10C99000030015204F4AB01286C50B4F0F93143871
:10C9A0004F4AB012A0C50F930C381B930320C2DF6F
:10C9B0002100093C2B930720C2DF2900043C3B43A4
:10C9C000033C0B4F013C0B430F4B3A413B41304181
:10C9D0000B120A124A4FB012F6C57F9003001520C1
:10C9E0004F4AB01286C50B4F0F9314384F4AB012FE
:10C9F000A0C50F930C381B930320C2EF2100093C04
:10CA00002B930720C2EF2900043C3B43033C0B4F10
:10CA1000013C0B430F4B3A413B4130410B120A1290
:10CA20004A4FB012F6C57F90030009244F930724A4
:10CA30005F9305246F9303247F90050019204F4ACC
:10CA4000B01286C50B4F0F9316384F4AB012A0C5CF
:10CA50000F9310381B9304205E4220000EFF043C0D
:10CA60005E4228000EFF1B430E9F05240B43033C30
:10CA70003B43013C0B4F0F4B3A413B4130410B12C2
:10CA80004B4FB012F6C57F50FDFF6F931B2C4F4BE1
:10CA9000B01286C50F9317384F4BB012A0C50F9335
:10CAA00012384F4B8F100F5F0F5F0F5F0F5F824F7A
:10CAB000B201B2D00300B00192B3B201FD231F4214
:10CAC000B401013C3F433B413041B012F6C57F9079
:10CAD000030002283F4330410F43304108433DB03B
:10CAE000008005243DE33CE31C530D6328D23BB09A
:10CAF000008005243BE33AE31A530B6338D2B012AB
:10CB000026CB081028B208243EE33FE31E530F63F0
:10CB10003CE33DE31C530D6338B204243CE33DE3A6
:10CB20001C530D6330410FEF0EEE394021000A3CDB
:10CB300008100E6E0F6F0F9B052802200E9A022818
:10CB40000E8A0F7B0C6C0D6D08681983F123304140
:02CB50000013D0
:10CB52000C00000062C101006CC1020076C103003A
:10CB6200B2C10400BCC10500F2C10600D4C2070074
:10CB7200DEC20800E8C20900F2C20A00FCC2FF00DD
:02CB820006C3E8
:10FFE0004CC04CC04CC04CC04CC04CC030C106C111
:10FFF0004CC04CC04CC04CC04CC04CC04CC000C0ED
:040000030000C00039
:00000001FF
