S01000006669726D776172652E73726563B7
S113C000314000041542200175F335D0085A3F40F1
S113C01032000F930724824520012F839F4F6CCB5E
S113C0200002F9233F402C010F930624824520018E
S113C0301F83CF433202FA23B01260C07F40110045
S113C040B012B4C27F401200B012B4C2B01274C0B5
S113C050B012A2C7FD3F32D0F000FD3F30406ACBA2
S113C060B240805A2001D242FF105700D242FE1043
S113C070560030410B123F408025B012D0C13B40E6
S113C08040000D4B3E4056023F404202B0126EC18A
S113C0900D4B3E4096023F404C02B0126EC1D2D3CB
S113C0A0010032D23B4130410B124B4F013C034360
S113C0B03F404C02B01250C10F93F9234E4B3F4006
S113C0C04C02B01284C1E2D301003B413041013C37
S113C0D003433F404202B01260C10F93F9233F4033
S113C0E04202B012AAC130410F120E120D120C12EC
S113C0F03F404202B01250C10F9306205E426600D8
S113C1003F404202B01284C13C413D413E413F4167
S113C11000130F120E120D120C123F404C02B012FB
S113C12060C10F9307203F404C02B012AAC1B01265
S113C1301CC2033CF2F0FDFF01003C413D413E4185
S113C1403F4100131E4F06001E8F08000F4E304162
S113C1501E439F9F0800060001240E430F4E3041EA
S113C1601E438F93080001240E430F4E30418F4E1F
S113C17000008F4E02008F4E04008F4D06008F4347
S113C180080030419F5308001D4F06003D532D5FAA
S113C1901D9F0400022CAF4F04001D4F0400CD4E20
S113C1A000001D538F4D04003041BF5308001E4F43
S113C1B006003E532E5F1E9F0200022CAF4F02006A
S113C1C01D4F02006E4D1D538F4D02004F4E3041E6
S113C1D00B120A12091208120712F2D006002600E6
S113C1E0F2D006004100F2D080FF610007433C40DA
S113C1F040423D400F000A4F0B47B012F6CAC24CF2
S113C2006200C2476300E2436400F2F0FEFF610093
S113C2103741384139413A413B413041C24F6700CF
S113C22030415E4203002EF3FC27C24F67003041C9
S113C2305F42660030415F4203001FF3FC275F4208
S113C2406600304112C34F104F114F114F114F4F21
S113C2500E4F3E532E9302283F40FEFF30414E4F77
S113C2607E50EFFF6E930C280E4F3EF00F003E926F
S113C2700A341F430E9303240F5F1E83FD233041B2
S113C2803F40FDFF30413F40FDFF30414D4F12C361
S113C2904D104D114D114D114D4D3D530D5D0D5D25
S113C2A00D5D3FF00F000D5F3D901100022CCD4E4F
S113C2B0320230414E43B0128CC230414E4F12C351
S113C2C04E104E114E114E114E4E3E530E5E0E5EEA
S113C2D00E5E3FF00F000E5F3E901100032C5F4E88
S113C2E0320230414F4330414F9310240D4F3DF003
S113C2F00F001D5312C34F104F114F114F114F4FC9
S113C3003F530F5F0F5F0F5F0D5F013C0D431D53E4
S113C3103F400F00113CCD9E32020D200F4D0F11F6
S113C3200F110F115F534F5F4F5F4F5F4F5F3DF032
S113C33007004F5D30411D530F9DED2F4F4330419A
S113C3407F9010004A247F9013008A247F90140069
S113C35044247F9015001E247F9016001B247F9098
S113C360170018247F90200015247F9021001224A8
S113C3707F9022000F247F9023000C247F902400C0
S113C38009247F90250006247F90260003247F90B3
S113C390270068207F90150020241E437F901600FC
S113C3A01D247F9017001A247F90200017247F906B
S113C3B0210014247F90220011247F9023000E2456
S113C3C07F9024000B247F90250008247F90260072
S113C3D005247F9027000620013C1E432ED37F9026
S113C3E0100027247F90130024247F90140021241C
S113C3F07F9015001E247F9016001B247F90170049
S113C40018247F90200015247F90210012247F900F
S113C41022000F247F9023000C247F902400092401
S113C4207F90250006247F90260003247F90270018
S113C4300B203ED074007F9010000F247F901300D7
S113C4400C247F90140009247F90150006247F900B
S113C450160003247F90170001203ED20F4E304176
S113C4601E43E73F0E439A3F0B120B4EB01240C3DC
S113C4700E4F0EFB1F430E9B01240F433B413041E3
S113C4800B120A1209120812494F484EB01244C244
S113C4900B4F0F93AE384F49B0125EC20A4F0F9341
S113C4A0A3384F49B012BCC24F98A0247892A02C54
S113C4B04F480F5F104FB8C4C8C4ECC414C54CC572
S113C4C080C59EC5AEC5C2C51E434F49B01268C4DF
S113C4D00F938E241B9304207AE3C2FA2200433C78
S113C4E02B937D207AE3C2FA2A00473C2E434F491E
S113C4F0B01268C40F937C241B930520C2CA220087
S113C500C2DA2100153C2B936A20C2CA2A00C2DA7F
S113C5102900193C2E434F49B01268C40F93682474
S113C5201B9309204F4A7FE3C2FF2200C2FF210070
S113C530C2DA2700543C2B9352204F4A7FE3C2FFB8
S113C5402A00C2FF2900C2DA2F00493C2E424F497B
S113C550B01268C40F934C241B930820C2DA220043
S113C5607AE3C2FA2100C2FA2700393C2B93372020
S113C570C2DA2A007AE3C2FA2900C2FA2F002F3C59
S113C5803E424F49B01268C40F9332247AE3C2FA90
S113C5902200C2FA2700B2403010B001203C3E40D5
S113C5A010004F49B01268C40F931920213C3E403B
S113C5B020004F49B01268C40F931A247E4006002D
S113C5C0093C3E4040004F49B01268C40F93102408
S113C5D07E4007004F43B012E8C24F9309204E48F3
S113C5E04F49B0128CC2023C0B4F033C0B43013C3D
S113C5F03B430F4B384139413A413B4130410B12E7
S113C6000A124A4FB012BCC27F90030015204F4A51
S113C610B01244C20B4F0F9314384F4AB0125EC28B
S113C6200F930C381B930320C2CF2100093C2B939A
S113C6300720C2CF2900043C3B43033C0B4F013C81
S113C6400B430F4B3A413B4130410B120A124A4F04
S113C650B012BCC27F90030015204F4AB01244C2EE
S113C6600B4F0F9314384F4AB0125EC20F930C381D
S113C6701B930320C2DF2100093C2B930720C2DF58
S113C6802900043C3B43033C0B4F013C0B430F4B41
S113C6903A413B4130410B120A124A4FB012BCC21C
S113C6A07F90030015204F4AB01244C20B4F0F93E2
S113C6B014384F4AB0125EC20F930C381B930320F8
S113C6C0C2EF2100093C2B930720C2EF2900043C50
S113C6D03B43033C0B4F013C0B430F4B3A413B4163
S113C6E030410B120A124A4FB012BCC27F900300B1
S113C6F009244F9307245F9305246F9303247F90A9
S113C700050019204F4AB01244C20B4F0F9316383C
S113C7104F4AB0125EC20F9310381B9304205E423E
S113C72020000EFF043C5E4228000EFF1B430E9FB8
S113C73005240B43033C3B43013C0B4F0F4B3A4155
S113C7403B4130410B124B4FB012BCC27F50FDFF36
S113C7506F931B2C4F4BB01244C20F9317384F4B9F
S113C760B0125EC20F9312384F4B8F100F5F0F5FE2
S113C7700F5F0F5F824FB201B2D00300B00192B3DA
S113C780B201FD231F42B401013C3F433B41304110
S113C790B012BCC27F90030002283F4330410F43D4
S113C7A030417E4024003F40D602B01248CA0F9365
S113C7B00E203E40D6023F400002B012B6CA3F905F
S113C7C0FDFF08207F500600B012D6C730416F43EA
S113C7D0B012D6C730410B123B401A03FB402B006A
S113C7E00000FB4005000100DB430200CB4F0300C7
S113C7F00F4BB012B2C9CB4F43000F4BB012F2C96A
S113C8003B4130415F43B012D6C70F4330414F43E1
S113C810B012D6C70F4330410B123B401A03FB4002
S113C8202B000000FB4007000100EB430200F24034
S113C830CAFF1D03F2431E03F240EEFF1F030F4B1A
S113C840B012B2C9CB4F43000F4BB012F2C90F4321
S113C8503B4130414F43B012D6C70F4330410B1216
S113C8600D4E6F9306246F42B012D6C73B40FCFFB7
S113C8700E3C5E4E01006F4DB01280C40B4F0F93FF
S113C88003247F400500013C5F43B012D6C70F4B21
S113C8903B4130410B120A120A4E6F9302246F423D
S113C8A0623C7F4005005F9E01005D285F4E0100F1
S113C8B00F5F104FB6C8C2C8CAC8D2C8E6C80EC9EE
S113C8C05AC96F4EB012FEC5073C6F4EB0124AC62D
S113C8D0033C6F4EB01296C60B4F0F931E205F435E
S113C8E0B012D6C7443C6F4EB012E2C60B4F0F9342
S113C8F01438F2402B001A03F24006001B03F240E6
S113C90003001C03E24A1D03C24F1E031B3C6F4E6F
S113C910B01244C70B4F0F9303347F400500E03F30
S113C920F2402B001A03F24007001B03E2421C03EF
S113C930E24A1D03C24F1E033FF0000F8F108F11F8
S113C940C24F1F033F401A03B012B2C9C24F5D0366
S113C9503F401A03B012F2C90A3C7F400500B012EE
S113C960D6C70B43043CB012D6C73B40FCFF0F4B69
S113C9703A413B4130414F43B012D6C70F43304197
S113C9804F43B012D6C70F4330414F43B012D6C7FE
S113C9900F4330414F43B012D6C70F4330414F438A
S113C9A0B012D6C70F4330414F43B012D6C70F431E
S113C9B030410B125D4F01006E4F4E5D5E5F020011
S113C9C04C432D82043C0B5F5E5B03005C534B4C79
S113C9D00B9DF93B4F4E3B4130410B120B4FB012B4
S113C9E0B2C91E435F9B430001240E430F4E3B41DB
S113C9F030410B120A120B4F5F4F01003F9045006C
S113CA001F346F4BB012A8C05F4B0100B012A8C016
S113CA105F4B0200B012A8C04A43063C0E5B5F4E57
S113CA200300B012A8C05A534E4A5F4B01002F8234
S113CA300E9FF43B5F4B4300B012A8C00F43013C70
S113CA403F433A413B4130410B120A1209120B4F4A
S113CA504A4EB012CEC04F9AFC23CB4A0000B0120B
S113CA60CEC0CB4F01004F4F3F9045001D34B01254
S113CA70CEC0CB4F02004A43063CB012CEC0095B85
S113CA80C94F03005A53494A5F4B01002F82099F43
S113CA90F43BB012CEC0CB4F43000F4BB012DAC9F7
S113CAA00F9304202F83033C3F43013C0F43394140
S113CAB03A413B4130410B120A120C4E6B4F0E4F60
S113CAC02E530D43113C6A4E2E521D535A9C0200A4
S113CAD00B200D5D0D5D0D5F0E4C3E5003005F4C51
S113CAE001006F82AD12043C0D9BED3B3F40FDFF06
S113CAF03A413B41304108433DB0008005243DE3C9
S113CB003CE31C530D6328D23BB0008005243BE377
S113CB103AE31A530B6338D2B01240CB081028B250
S113CB2008243EE33FE31E530F633CE33DE31C5301
S113CB300D6338B204243CE33DE31C530D633041E0
S113CB400FEF0EEE394021000A3C08100E6E0F6FF5
S113CB500F9B052802200E9A02280E8A0F7B0C6C6C
S10FCB600D6D08681983F12330410013A7
S113CB6C0C00000004C801000EC8020018C8030021
S113CB7C54C804005EC8050094C8060076C90700B2
S113CB8C80C908008AC9090094C90A009EC9FF001B
S105CB9CA8C922
S113FFE05CC05CC05CC05CC05CC05CC012C1E8C0EA
S113FFF05CC05CC05CC05CC05CC05CC05CC000C079
S903C0003C
